:100000000C942A000C9463000C9463000C9463001D
:100010000C9463000C9463000C9463000C946300D4
:100020000C9463000C9463000C9463000C946300C4
:100030000C9463000C9463000C9463000C946300B4
:100040000C9463000C9463000C9463000C946300A4
:100050000C94630011241FBECFE5D8E0DEBFCDBFF6
:0C0060000E9436000C945800F894FFCF6A
:10006C008FEF8ABB81B38E7F81BB82B3816082BBF1
:10007C0020E030E002C020E030E080990FC0809B8F
:10008C00FECF81E090E0022E02C0880F991F0A94E7
:10009C00E2F79BB389278BBB2F5F3F4F283031058D
:0400AC0061F7E9CF40
:1000B000EC010E9468000E946700CE010E94690066
:0600C000CE010E94650064
:0400C6000C94000096
:0400CA000E9434005C
:0200CE00089593
:0200D000089591
:0200D20008958F
:00000001FF
