:020000040800F2
:10000000002800201D0600086D0600086D06000887
:100010006D0600086D0600086D060008000000006F
:100020000000000000000000000000006D06000855
:100030006D060008000000006D0600086D0600084F
:100040006D0600086D0600086D0600086D060008C4
:100050006D0600086D060008710100089501000892
:10006000B9010008DD010008010200086D06000862
:100070006D0600086D0600086D0600086D06000894
:100080006D0600086D0600086D0600086D06000884
:100090006D0600086D0600086D0600086D06000874
:1000A0006D0600086D0600086D0600086D06000864
:1000B0006D0600086D0600086D0600086D06000854
:1000C0006D0600086D0600086D0600086D06000844
:1000D0006D0600086D0600086D0600086D06000834
:1000E0006D0600086D060008000000006D0600089F
:1000F0006D0600086D0600086D0600086D06000814
:100100006D0600086D0600086D0600086D06000803
:100110006D0600086D0600086D0600086D060008F3
:100120006D0600086D0600086D0600086D060008E3
:1001300010B5054C237833B9044B13B10448AFF321
:1001400000800123237010BD00000020000000008B
:10015000B806000808B5034B1BB103490348AFF3C9
:10016000008008BD0000000004000020B806000860
:1001700080B500AF054B5B69044A43F0010353614E
:10018000034B1B68984700BF80BD00BF00040140BF
:100190001C00002080B500AF054B5B69044A43F0AA
:1001A00002035361034B5B68984700BF80BD00BFEB
:1001B000000401401C00002080B500AF054B5B69C6
:1001C000044A43F004035361034B9B68984700BF04
:1001D00080BD00BF000401401C00002080B500AFBE
:1001E000054B5B69044A43F008035361034BDB682A
:1001F000984700BF80BD00BF000401401C000020E4
:1002000080B500AF054B5B69044A43F010035361AE
:10021000034B1B69984700BF80BD00BF000401402D
:100220001C00002080B483B000AF0346FB71FB7953
:100230000F2B43D801A252F823F000BF7D02000823
:100240008102000885020008890200088D0200086A
:100250009102000895020008990200089D0200081A
:10026000A1020008A5020008A9020008AD020008CA
:10027000B1020008B5020008B902000800231EE020
:1002800004231CE008231AE00C2318E0102316E0D6
:10029000142314E0182312E01C2310E000230EE0C6
:1002A00004230CE008230AE00C2308E0102306E0F6
:1002B000142304E0182302E01C2300E0FF23184667
:1002C0000C37BD4680BC704790B585B000AF7860F4
:1002D00039607B685A4A93420CD07B68594A9342F2
:1002E00008D07B68584A934204D07B68574A9342AF
:1002F00040F0A1803B681B78072B01D87B6801E0A8
:100300007B680433FB603B681B781846FFF78AFF65
:1003100003461A460F239340DA43FB681B681A40D2
:10032000FB681A603B685B78052B0BD03B685B78F9
:10033000042B07D03B685B78062B03D03B685B78C7
:10034000072B1DD13B685B78043B9B005AB23B688E
:100350009B785BB213435BB2DBB203F00F033B72DB
:100360003C7A3B681B781846FFF75CFF034604FAAB
:1003700003F31A46FB681B681A43FB681A605AE0CD
:100380003B685B78002B03D03B685B78012B13D173
:100390003B685B789B007B727C7A3B681B781846D5
:1003A000FFF740FF034604FA03F31A46FB681B6895
:1003B0001A43FB681A603EE03B685B78022B1DD154
:1003C0003B685B789B00BB727B68DB683A6812789D
:1003D000114601228A401A437B68DA60BC7A3B6886
:1003E0001B781846FFF71EFF034604FA03F31A466C
:1003F000FB681B681A43FB681A601CE00823FB7249
:100400007B68DB683A681278114601228A40D24341
:100410001A407B68DA60FC7A3B681B781846FFF765
:1004200001FF034604FA03F31A46FB681B681A43EC
:10043000FB681A60FFE700BF1437BD4690BD00BFE0
:1004400000080140000C0140001001400014014070
:1004500080B485B000AF78600B46FB707B68104AB3
:1004600093420BD07B680F4A934207D07B680E4AB9
:10047000934203D07B680D4A93420AD17B689A6805
:10048000FB7822FA03F3DBB203F00103FB73FB7B7F
:1004900000E0002318461437BD4680BC704700BFFB
:1004A00000080140000C0140001001400014014010
:1004B00080B483B000AF78600B46FB707B680E4A57
:1004C00093420BD07B680D4A934207D07B680C4A5D
:1004D000934203D07B680B4A934208D17B68DB6868
:1004E000FA78012101FA02F25A407B68DA6000BF13
:1004F0000C37BD4680BC704700080140000C01402D
:10050000001001400014014080B400AF074B9B690C
:10051000064A43F004039361044B9B69034A43F08A
:100520000803936100BFBD4680BC704700100240C5
:1005300080B582B000AF7B6801221A707B6804220C
:100540005A707B6801229A7079681748FFF7BCFEE1
:100550007B680D221A707B6804225A707B68012226
:100560009A7079681048FFF7AFFE7B6801221A7015
:100570007B6801225A707B6800229A7079680B4868
:10058000FFF7A2FE7B680D221A707B6801225A7069
:100590007B6800229A7079680448FFF795FE00BFD7
:1005A0000837BD4680BD00BF000C01400008014077
:1005B00080B582B000AFFFF7A7FFFFF7B9FF0121B9
:1005C0001448FFF745FF0346002B0BD101211248C9
:1005D000FFF76EFF00BF01210E48FFF739FF03460A
:1005E000002BF8D00D210B48FFF732FF0346012BFB
:1005F00003D10D210848FFF75BFF0023FB7104E0E6
:10060000FB79DBB20133DBB2FB71FB79DBB2FF2B91
:10061000F6D1D4E700080140000C01400D488546A2
:10062000AFF300800C480D490D4A002302E0D45876
:10063000C4500433C4188C42F9D30A4A0A4C00232C
:1006400001E013600432A242FBD300F011F8FFF77F
:10065000AFFFFEE70028002000000020000000207F
:10066000D80600080000002058000020FEE7000027
:1006700070B500250C4E0D4CA41BA410A54209D149
:1006800000F01AF800250A4E0A4CA41BA410A5423B
:1006900005D170BD56F8253098470135EEE756F87C
:1006A000253098470135F2E7D0060008D00600084B
:1006B000D0060008D4060008F8B500BFF8BC08BC96
:1006C0009E467047F8B500BFF8BC08BC9E46704710
:0406D00055010008C8
:0406D40031010008E8
:040000050800061DCC
:00000001FF
