:100000000C942A000C94BC000C94BC000C94BC0012
:100010000C94BC000C94BC000C94BC000C94BC0070
:100020000C94BC000C94BC000C94BC000C94BC0060
:100030000C94BC000C94BC000C94BC000C94BC0050
:100040000C94BC000C94BC000C94BC000C94BC0040
:100050000C94BC0011241FBECFE5D8E0DEBFCDBF9D
:0C0060000E9436000C94B100F894FFCF11
:10006C008FEF8ABB8BB381608BBB2FE78AE196E065
:10007C00215080409040E1F700C000008BB38E7F90
:10008C008BBB8BB382608BBB2FE78AE196E0215050
:10009C0080409040E1F700C000008BB38D7F8BBB9C
:1000AC008BB384608BBB2FE78AE196E021508040B4
:1000BC009040E1F700C000008BB38B7F8BBB8BB300
:1000CC0088608BBB2FE78AE196E0215080409040FE
:1000DC00E1F700C000008BB3877F8BBB8BB38061D3
:1000EC008BBB2FE78AE196E0215080409040E1F7EE
:1000FC0000C000008BB38F7E8BBB8BB380628BBB3D
:10010C002FE78AE196E0215080409040E1F700C053
:10011C0000008BB38F7D8BBB8BB380648BBB2FE7C5
:10012C008AE196E0215080409040E1F700C0000049
:10013C008BB38F7B8BBB8BB380688BBB2FE78AE138
:10014C0096E0215080409040E1F700C000008BB356
:06015C008F778BBB87CFFB
:10016200EC010E94C1000E94C000CE010E94C200A8
:06017200CE010E94BE0058
:040178000C940000E3
:04017C000E943400A9
:020180000895E0
:020182000895DE
:020184000895DC
:00000001FF
