:020000040800F2
:1000000000280020BD0800080D0900080D0900089F
:100010000D0900080D0900080D0900080000000086
:100020000000000000000000000000000D090008B2
:100030000D090008000000000D0900080D09000866
:100040000D0900080D0900080D0900080D09000838
:100050000D0900080D09000871010008950100084C
:10006000B9010008DD010008010200080D090008BF
:100070000D0900080D0900080D0900080D09000808
:100080000D0900080D0900080D0900080D090008F8
:100090000D0900080D0900080D0900080D090008E8
:1000A0000D0900080D0900080D0900080D090008D8
:1000B0000D0900080D0900080D0900080D090008C8
:1000C0000D0900080D0900080D0900080D090008B8
:1000D0000D09000801080008150800082908000893
:1000E0000D0900080D090008000000000D090008B6
:1000F0000D0900080D0900080D0900080D09000888
:100100000D0900080D0900080D0900080D09000877
:100110000D0900080D0900080D0900080D09000867
:100120000D0900080D0900080D0900080D09000857
:1001300010B5054C237833B9044B13B10448AFF321
:1001400000800123237010BD1C000020000000006F
:100150005809000808B5034B1BB103490348AFF326
:10016000008008BD000000002000002058090008A1
:1001700080B500AF054B5B69044A43F0010353614E
:10018000034B1B68984700BF80BD00BF00040140BF
:100190003800002080B500AF054B5B69044A43F08E
:1001A00002035361034B5B68984700BF80BD00BFEB
:1001B000000401403800002080B500AF054B5B69AA
:1001C000044A43F004035361034B9B68984700BF04
:1001D00080BD00BF000401403800002080B500AFA2
:1001E000054B5B69044A43F008035361034BDB682A
:1001F000984700BF80BD00BF0004014038000020C8
:1002000080B500AF054B5B69044A43F010035361AE
:10021000034B1B69984700BF80BD00BF000401402D
:100220003800002080B483B000AF0346FB71FB7937
:100230000F2B43D801A252F823F000BF7D02000823
:100240008102000885020008890200088D0200086A
:100250009102000895020008990200089D0200081A
:10026000A1020008A5020008A9020008AD020008CA
:10027000B1020008B5020008B902000800231EE020
:1002800004231CE008231AE00C2318E0102316E0D6
:10029000142314E0182312E01C2310E000230EE0C6
:1002A00004230CE008230AE00C2308E0102306E0F6
:1002B000142304E0182302E01C2300E0FF23184667
:1002C0000C37BD4680BC704790B585B000AF7860F4
:1002D00039607B685A4A93420CD07B68594A9342F2
:1002E00008D07B68584A934204D07B68574A9342AF
:1002F00040F0A1803B681B78072B01D87B6801E0A8
:100300007B680433FB603B681B781846FFF78AFF65
:1003100003461A460F239340DA43FB681B681A40D2
:10032000FB681A603B685B78052B0BD03B685B78F9
:10033000042B07D03B685B78062B03D03B685B78C7
:10034000072B1DD13B685B78043B9B005AB23B688E
:100350009B785BB213435BB2DBB203F00F033B72DB
:100360003C7A3B681B781846FFF75CFF034604FAAB
:1003700003F31A46FB681B681A43FB681A605AE0CD
:100380003B685B78002B03D03B685B78012B13D173
:100390003B685B789B007B727C7A3B681B781846D5
:1003A000FFF740FF034604FA03F31A46FB681B6895
:1003B0001A43FB681A603EE03B685B78022B1DD154
:1003C0003B685B789B00BB727B68DB683A6812789D
:1003D000114601228A401A437B68DA60BC7A3B6886
:1003E0001B781846FFF71EFF034604FA03F31A466C
:1003F000FB681B681A43FB681A601CE00823FB7249
:100400007B68DB683A681278114601228A40D24341
:100410001A407B68DA60FC7A3B681B781846FFF765
:1004200001FF034604FA03F31A46FB681B681A43EC
:10043000FB681A60FFE700BF1437BD4690BD00BFE0
:1004400000080140000C0140001001400014014070
:1004500080B500AF00F024F80146054B5B681B0A2D
:1004600003F00703034AD35C21FA03F3184680BD67
:10047000001002400000002080B500AF00F010F82E
:100480000146054B5B68DB0A03F00703034AD35CB4
:1004900021FA03F3184680BD00100240000000203E
:1004A00080B500AF00F010F80146054B5B681B09F2
:1004B00003F00F03034AD35C21FA03F3184680BD0F
:1004C000001002400800002080B400AF0B4B5B68B6
:1004D0009B0803F00303012B06D0012B02D3022B50
:1004E00004D005E0064B04E0064B02E0054B00E0BB
:1004F00000231846BD4680BC704700BF0010024074
:1005000000127A000024F40090B585B000AF786046
:100510003960574A3B6813607B68564A934206D15C
:10052000554B9B69544A43F48043936114E07B68C4
:10053000524A934206D1504BDB694F4A43F4003391
:10054000D36109E07B684D4A934205D14A4BDB6990
:10055000494A43F48023D3617B68DB6843F400524B
:100560007B68DA607B68DB683A6812781A437B68DC
:10057000DA607B68DB683A6892781A437B68DA60F5
:100580007B68DB683A68D2781A437B68DA607B68FC
:10059000DB683A6892791A437B68DA607B68354A8F
:1005A000934206D1364B5B68354A43F020035360D3
:1005B00014E07B68314A934206D1314B5B68304A84
:1005C00043F04003536009E07B682E4A934205D113
:1005D0002B4B5B682A4A43F0800353607B681B699E
:1005E0003A6812791A437B681A617B685B693A68DA
:1005F00052791A437B685A617B681E4A934203D141
:10060000FFF73AFFF86002E0FFF722FFF8607B682F
:1006100099683B685B781B011A46FB68B3FBF2F3F1
:100620001801FA6813469B0013449A0013443A6871
:1006300052789200B3FBF2F23B685B781B011C46D8
:10064000FB68B3FBF4F3642404FB03F3D31A1B012C
:100650000D4AA2FB03235B0903F00F03034341EAA6
:1006600003027B689A6000BF1437BD4690BD00BF8F
:100670007400002000380140001002400048004093
:1006800000E100E0004400401F85EB5180B485B0DC
:1006900000AFF860B9601346FB71FB79002B07D1FE
:1006A00000BFFB681B68DB0903F00103002BF8D0D7
:1006B000074B1B689B78002B04D1BB681B88DAB200
:1006C000FB685A6000BF1437BD4680BC704700BF4E
:1006D0007400002080B485B000AFF860B9601346A4
:1006E000FB71FB79002B07D100BFFB681B685B091E
:1006F00003F00103002BF8D00C4B1B68DB78002BB8
:1007000007D1FB685B689BB2DBB29AB2BB681A8008
:1007100007E0FB685B689BB203F07F039AB2BB689B
:100720001A8000BF1437BD4680BC7047740000209B
:1007300080B584B000AF78607B682E4A934218D1B0
:1007400009233B7306237B730123BB7307F10C035F
:1007500019462948FFF7B8FD0A233B7301237B7331
:100760000023BB7307F10C0319462348FFF7ACFDC8
:100770003CE07B68214A93421CD17B681D4A93422E
:1007800034D102233B7306237B730123BB7307F130
:100790000C0319461848FFF797FD03233B73012309
:1007A0007B730023BB7307F10C0319461248FFF754
:1007B0008BFD1BE07B680F4A934217D10A233B73E2
:1007C00006237B730123BB7307F10C0319460A4808
:1007D000FFF77AFD0B233B7301237B730023BB736D
:1007E00007F10C0319460448FFF76EFD00BF1037F0
:1007F000BD4680BD0038014000080140004800406F
:1008000080B500AF024B1B689B68984700BF80BD56
:100810007400002080B500AF024B1B689B689847AE
:1008200000BF80BD7400002080B500AF024B1B6884
:100830009B68984700BF80BD7400002080B400AF63
:10084000074B9B69064A43F004039361044B9B6981
:10085000034A43F00803936100BFBD4680BC704764
:100860000010024080B584B000AFFFF7E7FF00231F
:100870007B7100237B720023BB720023FB7100237A
:10088000BB7100233B720C233B710023FB603B1DBB
:1008900019460848FFF738FE0648FFF749FF0022CF
:1008A00005490448FFF716FF002203490148FFF7F6
:1008B000EDFEF4E700380140780000200D48854641
:1008C000AFF300800C480D490D4A002302E0D458D4
:1008D000C4500433C4188C42F9D30A4A0A4C00238A
:1008E00001E013600432A242FBD300F011F8FFF7DD
:1008F000B9FFFEE700280020000000201C000020B7
:10090000780900081C0000207C000020FEE70000A1
:1009100070B500250C4E0D4CA41BA410A54209D1A6
:1009200000F01AF800250A4E0A4CA41BA410A54298
:1009300005D170BD56F8253098470135EEE756F8D9
:10094000253098470135F2E7700900087009000862
:100950007009000874090008F8B500BFF8BC08BCAD
:100960009E467047F8B500BFF8BC08BC9E4670476D
:040970005501000825
:040974003101000845
:100978000000000001020304000000000000000065
:0C09880001020304050607080900000036
:04000005080008BD2A
:00000001FF
